:020000040800F2
:10000000F006002091010008450B00086B0A00086B
:10001000B30A0008C10800080F140008000000001F
:10002000000000000000000000000000C50C0008F7
:10003000C508000800000000CD0B0008D90D00081D
:10004000AB010008AB010008AB010008AB010008E0
:10005000AB010008AB010008C9080008AB010008AB
:10006000AB010008AB010008F1080008AB01000873
:10007000AB010008AB010008AB010008AB010008B0
:10008000AB010008AB010008AB010008AB010008A0
:10009000AB010008AB010008AB010008AB01000890
:1000A000AB010008AB010008AB010008AB01000880
:1000B000AB010008AB0100083D0E0008AB010008D1
:1000C000AB010008AB010008AB010008AB01000860
:1000D000AB010008A10E0008B1110008F5110008DD
:1000E000AB010008AB010008AB01000800F002F80A
:1000F00000F03FF80AA090E8000C82448344AAF183
:100100000107DA4501D100F034F8AFF2090EBAE880
:100110000F0013F0010F18BFFB1A43F0010318473B
:100120003C1500005C150000103A24BF78C878C167
:10013000FAD8520724BF30C830C144BF04680C60ED
:10014000704700000023002400250026103A28BF35
:1001500078C1FBD8520728BF30C148BF0B60704739
:10016000642900F04380002070471FB51FBD10B503
:1001700010BD00F037FA1146FFF7F7FF01F010FA53
:1001800000F055FA03B4FFF7F2FF03BC01F048F9A1
:100190000948804709480047FEE7FEE7FEE7FEE71B
:1001A000FEE7FEE7FEE7FEE7FEE7FEE70448054957
:1001B000054A064B70470000DD0D0008ED00000801
:1001C000F0000020F0060020F0020020F0020020E5
:1001D000704700000FB4044910B503AA029800F05C
:1001E000E7F910BC5DF814FB300000202DE9F04168
:1001F0000646002410687529314616A510D0AFF3C5
:100200000080002802DA404213A507E031688A071F
:1002100001D512A502E0490704D511A5012401E08A
:10022000AFF3008000210A2206F1240709E0B0FBA9
:10023000F2FCB0FBF2F302FB1C003030785418469D
:10024000491C0028F3D123462A463046BDE8F04138
:1002500000F03DB9000000002D0000002B00000060
:10026000200000002DE9F05F894604464FF0000AA7
:10027000DFF874B1FB44C0F820A02046E16888474D
:10028000002874D0252806D0D4E901219047206A9F
:10029000401C2062F1E700265F462046E16888475F
:1002A0002028054607DB312D05D2781910F8200CDF
:1002B00008B10643F1E7B00701D526F00406C4F8FB
:1002C0001CA00027C4F818A02A2D09D0284601F048
:1002D000A0F838B304EB8708303DC8F8185019E08F
:1002E00059F8041B204604EB87029161E1688847B6
:1002F000012F054618D1E069002820DA26F02006F3
:100300001DE0D8F8180000EB800005EB4000303805
:10031000C8F818002046E1688847054601F079F8DA
:100320000028EED1012F0AD02E2D08D12046E168F9
:1003300088477F1C0546022F46F02006C4DBA069D3
:10034000002803DA404246F00106A061F00701D020
:1003500026F010066C2D0BD0682D09D04C2D39D00D
:100360006A2D35D0742D35D07A2D33D016E038E093
:10037000E1682F4620468847B842054609D16C2FD0
:1003800026D04FF48060E168064320468847054642
:1003900004E06C2F1AD04FF4807006430DB3A5F122
:1003A0004100192802D8203546F400664A462946FD
:1003B000204626604E46FFF7D3FE80B101280BD0C1
:1003C000F61D26F0070000F1080956E74020E4E793
:1003D0008020D8E70020D6E706F104094DE728463B
:1003E00052E7206ABDE8F09FD013000040EA010305
:1003F000024630B59B0710D14FF0013400E008C22F
:1004000008C91D1B9D4315EAC41FF8D013F0FF0156
:1004100002F8011B0DD01B0AF8E711F8013B002B75
:1004200002F8013B05D011F8013B002B02F8013B1B
:10043000F3D130BD4FF000020429C0F0128010F05B
:10044000030C00F01B80CCF1040CBCF1020F18BFB0
:1004500000F8012BA8BF20F8022BA1EB0C0100F043
:100460000DB85FEAC17C24BF00F8012B00F8012B16
:1004700048BF00F8012B70474FF0000200B513464B
:1004800094469646203922BFA0E80C50A0E80C50B4
:10049000B1F12001BFF4F7AF090728BFA0E80C5065
:1004A00048BF0CC05DF804EB890028BF40F8042B5E
:1004B00008BF704748BF20F8022B11F0804F18BFCB
:1004C00000F8012B704770477047704770472DE95F
:1004D000F0470D4699469246044600F1240801680B
:1004E000880604D5E06921F01001216000E00120B8
:1004F000A84201DD471B00E00027A1697A1902EB41
:100500000900081AA0612078C00602D42046AFF383
:100510000080002608E0D4E901211AF8060090477F
:10052000206A401C761C20624E45F4DB2078C00611
:100530000AD52046AFF3008006E0D4E9012130203F
:100540009047206A401C2062381EA7F10107F4DCA6
:1005500007E0D4E9012118F805009047206A401C03
:100560002062281EA5F10105F3DC2046AFF30080D0
:100570002078000602D50220BDE8F0870120FBE7C5
:1005800001694A1C02610878704700B58FB0CDE957
:1005900001310021059105497944CDE90310114647
:1005A0006846FFF75FFE0FB000BD0000E5FFFFFFEC
:1005B000074B70B50D467B44FFF7E7FF044628461E
:1005C00000F008F810B14FF0FF3070BD204670BD4C
:1005D000FB0E0000007B00F0800070470048704771
:1005E000900000207546FFF7F9FFAE46050069460A
:1005F000534620F00700854618B020B5FFF7D6FD1A
:10060000BDE820404FF000064FF000074FF0000813
:100610004FF0000B21F00701AC46ACE8C009ACE894
:10062000C009ACE8C009ACE8C0098D46704710B5F8
:100630000446AFF300802046BDE81040FFF7A2BD9E
:100640002DE9F04F85B03220049003900290019084
:100650007B4800784C2815D17948C07830387849E3
:100660008978303901EB810100EB41000490744836
:100670008079303872494979303901EB810100EBDA
:10068000410003906F480078522815D16D48C0781A
:1006900030386C498978303901EB810100EB410039
:1006A000029068488079303866494979303901EBE1
:1006B000810100EB410001907F2043425A220A2130
:1006C0000090049800F0EAF981467F2043425A22C4
:1006D0000A210090039800F0E1F906467F2043428A
:1006E0005A220A210090029800F0D8F982467F2011
:1006F00043425A220A210090019800F0CFF9834624
:100700003446354670424844A0EB0B00A0EB0A0784
:100710007042A0EB0900A0EB0B0000EB0A0840F2CE
:10072000F31043427F2251420090204600F0B6F978
:10073000044640F2F31043427F2251420090284683
:1007400000F0ACF9054640F2F31043427F225142DB
:100750000090384600F0A2F9074640F2F3104342F9
:100760007F2251420090404600F098F9804601985F
:10077000009035A0DDE902320499FFF72BFD5346C6
:100780003246494637A0CDF800B0FFF723FD3B467F
:100790002A4621463EA0CDF80080FFF71BFD142C11
:1007A00003DA14F1140F00DD0024142D03DA15F11F
:1007B000140F00DD0025142F03DA17F1140F00DDEC
:1007C0000027B8F1140F04DA18F1140F01DD4FF00F
:1007D0000008B4F5FA7F01DB40F2F314B5F5FA7FB7
:1007E00001DB40F2F315B7F5FA7F01DB40F2F317B6
:1007F000B8F5FA7F01DB40F2F31814F5FA7F01DC5B
:100800006FF4F97415F5FA7F01DC6FF4F97517F5DB
:10081000FA7F01DC6FF4F97718F5FA7F01DC6FF4E9
:10082000F9784FF4FA70234908804FF44870214951
:10083000083108800A2000F017FE05B0BDE8F08FEF
:10084000400000204A0000204C783D25642C204CBC
:10085000793D25642C2052783D25642C2052793D29
:1008600025640A004D61705F4C783D25642C204D55
:1008700061705F4C793D25642C204D61705F52782A
:100880003D25642C204D61705F52793D25640A003E
:1008900070776D313D25642C2070776D323D256475
:1008A0002C2070776D333D25642C2070776D343D9E
:1008B00025640A003808004010B5FFF7C1FE10BDDE
:1008C00000BFFEE77047000010B5012000F02AF8D5
:1008D00040B105480068C0430449C1F8B401012093
:1008E00000F01AF810BD0000B401224200002242BC
:1008F00010B5102000F016F840B105480068C0435C
:100900000449C1F8B401102000F006F810BD000041
:10091000B4012242000022420149086070470000F1
:1009200014040140014600200022074B1B6803EA23
:100930000102054B14331B680B4013B10AB10120AF
:1009400000E0002070470000000401402DE9F04164
:10095000024600250026002000230024002791F8ED
:1009600003C00CF00F0591F803C00CF0100CBCF1A3
:10097000000F03D091F802C04CEA050591F800C0C1
:10098000BCF1000F31D0146800202BE04FF0010CB7
:100990000CFA00F3B1F800C00CEA03069E4220D125
:1009A00083004FF00F0C0CFA03F7BC4305FA03FC6D
:1009B0004CEA040491F803C0BCF1280F06D14FF0B3
:1009C000010C0CFA00FCC2F814C00AE091F803C054
:1009D000BCF1480F05D14FF0010C0CFA00FCC2F835
:1009E00010C0401C0828D1D31460B1F800C0BCF17D
:1009F000FF0F34DD546800202EE000F1080C4FF0AA
:100A0000010808FA0CF3B1F800C00CEA03069E4294
:100A100021D183004FF00F0C0CFA03F7BC4305FA09
:100A200003FC4CEA040491F803C0BCF1280F05D183
:100A300000F1080C08FA0CF8C2F8148091F803C011
:100A4000BCF1480F07D100F1080C4FF0010808FA7B
:100A50000CF8C2F81080401C0828CED35460BDE8C2
:100A6000F081416170470161704700BFFEE70000FF
:100A700008B50121102000F0ABF84FF40050ADF89C
:100A8000000010208DF8030003208DF80200694655
:100A90000148FFF75BFF08BD0010014070B5044638
:100AA000049D601AEE1A7043561A90FBF6F0184433
:100AB00070BD00BFFEE7000010B50446062C2ED125
:100AC00010211D48FFF7CFFF4FF400711A48FFF7C0
:100AD000CAFF4FF4FA71080700F0D8F94FF480719B
:100AE0001548FFF7C0FF00214FF0804000F0D0F91B
:100AF00080211148FFF7B5FF00214FF0804000F042
:100B0000C9F920210C48FFF7ACFF4FF4FA71080730
:100B100000F0C2F940210848FFF7A5FF0AE0072CC2
:100B200008D110210448FFF79CFF4FF400710248E0
:100B3000FFF797FF10BD0000000C014010B500F05A
:100B4000CBFC10BD7047000070B5002100230F22C0
:100B5000C47804B3154C246804F4E064C4F5E0647C
:100B6000210AC1F10403CA40447804FA03F18478ED
:100B70001440214309010E4C0678A155047804F075
:100B80001F050124AC4005786D11AD0005F1E0258D
:100B9000C5F8004109E0047804F01F050124AC40C9
:100BA000044D0678761145F8264070BD0CED00E046
:100BB00000E400E080E100E002490143024A1160E4
:100BC000704700000000FA050CED00E070470000DF
:100BD00029B1064A92690243044B9A6104E0034A30
:100BE00092698243014B9A617047000000100240F5
:100BF00030B500210022002400232D4D6D6805F042
:100C00000C0121B1042905D0082923D105E0294D83
:100C1000056022E0274D05601FE0254D6D6805F455
:100C20007012234D6D6805F48034022505EB924265
:100C30001CB9214D554305600BE01D4D6D6805F451
:100C400000351DB11C4D5543056002E0194D55435B
:100C5000056002E0174D056000BF00BF144D6D68D0
:100C600005F0F0010909154D6B5C0568DD40456034
:100C70000F4D6D6805F4E061090A104D6B5C456825
:100C8000DD4085600A4D6D6805F46051C90A0B4D61
:100C90006B5C4568DD40C560054D6D6805F44041FD
:100CA000890B074D6B5CC568B5FBF3F5056130BD7D
:100CB0000010024000127A0000093D0014000020DC
:100CC00024000020704710B500F002F810BD0000AD
:100CD0000CB50020019000903348006840F480304B
:100CE0003149086000BF3048006800F400300090CF
:100CF0000198401C0190009818B90198B0F5A06FB8
:100D0000F1D12948006800F4003010B101200090B2
:100D100001E0002000900098012843D1234800689A
:100D200040F01000214908600846006820F00300E8
:100D300008600846006840F0020008601A484068F1
:100D4000194948600846406848600846406840F4D1
:100D5000806048600846406820F47C10486008467F
:100D6000406840F4E81048600846006840F0807031
:100D7000086000BF0C48006800F000700028F9D03F
:100D80000948406820F00300074948600846406869
:100D900040F00200486000BF0348406800F00C00CB
:100DA0000828F9D10CBD00000010024000200240CC
:100DB000042808D14FF0E021096941F004014FF007
:100DC000E022116107E04FF0E021096921F0040100
:100DD0004FF0E022116170477047000010B51348D2
:100DE000006840F001001149086008464068104959
:100DF00008400E494860084600680E4908400B4903
:100E000008600846006820F48020086008464068B2
:100E100020F4FE0048604FF41F008860FFF753FF86
:100E20004FF000600449086010BD0000001002404F
:100E30000000FFF8FFFFF6FE08ED00E010B501210D
:100E4000064800F012F840B10121044800F00AF809
:100E500003480088401C0249088010BD000800407B
:100E60003E000020CA430282704730B5024600208F
:100E700000230024158A05EA0103958905EA010487
:100E800013B10CB1012000E0002030BD8186704715
:100E90000187704781877047A0F8401070470000B5
:100EA00010B540F22551874800F0DFF900287DD0C9
:100EB000844800F095FAC4B2612C03D10120824924
:100EC000087022E0622C03D102207F4908701CE0E8
:100ED000632C03D103207C49087016E0642C03D1F5
:100EE00004207949087010E0652C03D1052076496B
:100EF00008700AE0662C03D106207349087004E0EC
:100F0000672C02D10720704908707048007848B9F2
:100F10006D480078042805D100206B490870012035
:100F20006A4908706848007802287DD04C2C0ED1A0
:100F3000612C0CD0622C0AD0632C08D0642C06D013
:100F4000652C04D0662C02D00120614908706048ED
:100F50000078012830D1612C2ED0622C2CD0632C4B
:100F60002AD0642C28D0652C26D0662C24D0594851
:100F700059490978445458480078401C564908702B
:100F80002A2C19D15548007858B9554800210160DC
:100F9000416001814F4801604160018101204F495A
:100FA00008704C494E48FFF721FA00E04AE0002063
:100FB0004749087048490870522C0ED1612C0CD05A
:100FC000622C0AD0632C08D0642C06D0652C04D087
:100FD000662C02D00120434908704248007801285D
:100FE0006ED1612C6CD0622C6AD0632C68D0642CDA
:100FF00066D0652C64D0662C62D03B483B490978AA
:1010000044543A480078401C384908702A2C57D17B
:101010003748007868B93748002101604160018194
:1010200031480160416000E00DE00181012030495C
:1010300008702D492F48FFF7D9F900202949087079
:101040002A4908703CE0412C16D1612C14D0622C46
:1010500012D0632C10D0642C0ED0652C0CD0662CD2
:101060000AD001202449087014212448FFF7E2F92E
:1010700014212348FFF7DEF91F48007801281FD10B
:10108000612C1DD0622C1BD0632C19D0642C17D07E
:10109000652C15D0662C13D019481A490978445488
:1010A00018480078401C174908702A2C08D11449A8
:1010B0001248FFF79BF900200F490870114908708A
:1010C00010BD0000003801402D0000203400002039
:1010D0003A00002068000020370000203500002082
:1010E000400000203B00002072000020380000205B
:1010F000360000204A0000203C0000205400002060
:101100007C0000203900002010B586B00446012183
:1011100044F20400FFF75CFD01210846FFF758FD8B
:101120004FF40070ADF8140003208DF8160018205D
:101130008DF8170005A91C48FFF708FC4FF48060E4
:10114000ADF8140004208DF8170005A91648FFF724
:10115000FDFB25208DF8000003208DF801008DF89F
:10116000020001208DF803006846FFF7EDFC0194B2
:101170000020ADF80800ADF80A00ADF80C00ADF89D
:1011800010000C20ADF80E0001A9084800F0BCF8D2
:10119000012240F22551054800F091F80121034851
:1011A00000F04AF806B010BD0008014000380140C8
:1011B00010B540F225510D4800F057F888B10B48A2
:1011C00000F00EF9C4B2612C02D0622C08D103E009
:1011D00001200749087003E002200549087000BF9C
:1011E00000BF2146014800F000F910BD0044004056
:1011F0002C00002010B540F225510D4800F035F8C4
:1012000088B10B4800F0ECF8C4B2612C02D0622C1B
:1012100008D103E001200749087003E002200549D6
:10122000087000BF00BF2146014800F0DEF810BD85
:10123000004800402C00002021B1828942F4005275
:10124000828104E082894DF6FF731A4082817047E3
:1012500002460020B1F5007F00D100BF13880B408B
:101260000BB1012000E00020704770B50246002459
:1012700000230025002040F66A16B14200D100BFCD
:10128000C1F3421501F01F03012606FA03F3012DF5
:1012900002D19689334006E0022D02D1168A3340EE
:1012A00001E0968A33400C12012606FA04F41688EF
:1012B000344013B10CB1012000E0002070BDF0B546
:1012C0000346002400260025002040F66A17B94294
:1012D00000D100BF1846C1F3421401F01F060127D8
:1012E00007FA06F5012C01D10C3004E0022C01D1E3
:1012F000103000E014301AB107682F43076002E095
:101300000768AF430760F0BD2DE9F04786B005469A
:101310000E460024A24600BFA1460027B08900B1B6
:1013200000BF2F462C8A4CF6FF700440F08804431F
:101330002C82AC894EF6F3100440B0883189084302
:10134000718908430443AC81AC8A4FF6FF400440E6
:10135000B0890443AC8201A8FFF74AFC1F488742CA
:1013600002D1DDF810A001E0DDF80CA0A88900F49E
:10137000004040B10AEBCA0000EB0A103168490096
:10138000B0FBF1F807E00AEBCA0000EB0A10316885
:101390008900B0FBF1F86420B8FBF0F004012009EB
:1013A000642101FB1089A88900F4004040B132207B
:1013B00000EBC900B0FBF1F000F00700044308E0C7
:1013C000322000EB09106421B0FBF1F000F00F00B7
:1013D00004432C8106B0BDE8F087000000380140CE
:1013E00001468888C0F30800704770B504460D4672
:1013F000C5F30800A08000BF80212046FFF728FF2A
:101400000028F9D070BDC1F308028280704700BF88
:10141000FEE730380A2801D20120704700207047CB
:1014200000BF704710B56FF00400FFF7C1FC0A4819
:1014300000680A49B0FBF1F00949087008460078D5
:1014400000EB4001C1EBC0104FF6FF7101EAC00094
:101450000449088010BD00000000002000127A003E
:10146000280000202A0000200146114A12884A4321
:101470004FF0E0235A6100229A611A46126942F045
:1014800001021A6100BF4FF0E022106900F0010272
:101490001AB100F48032002AF5D04FF0E022126930
:1014A00022F001024FF0E0231A6100229A61704796
:1014B0002A00002070B504460D46E1B20548FFF74A
:1014C000A2FF00BF80210348FFF7C2FE0028F9D029
:1014D000204670BD0038014008B501210820FFF703
:1014E00077FB18208DF8030003208DF802000120FF
:1014F000ADF8000069462748FFF728FA10208DF85C
:10150000030003208DF802004FF48070ADF8000056
:1015100069462048FFF71AFA1F48C06940F00400E6
:101520001D49C86148201D4908804FF47A70091D83
:10153000088000201949091F0880184828380088A9
:1015400020F0100015492839088014480838008810
:1015500020F40050114908390880081F008840F421
:10156000C040091F0880081D008840F48050091DF4
:101570000880002009491831088008482838008868
:1015800040F0010005492839088089150148FFF716
:1015900068FA08BD000C0140001002402808004015
:1015A000FFF740FF4FF4A060FFF706FBFFF760FA7C
:1015B0004FF41650FFF7A8FD0AA0FEF70BFEFFF749
:1015C000BDFA0FA0FEF706FE0720FFF775FA13A07D
:1015D000FEF700FE4FF47A70FFF746FF01E000F0DF
:1015E0002FF8FCE7E4B8B2E58FA3E5889DE5A78B6B
:1015F000E58C96E5AE8CE68890EFBC810D0A000084
:10160000E794B5E69CBAE5889DE5A78BE58C96E561
:10161000AE8CE68890EFBC810D0A0000E794B5E639
:101620009CBAE9A9B1E58AA8E5889DE5A78BE58C78
:1016300096E5AE8CE68890EFBC810D0A00000000B4
:1016400010B5FFF739F910BD0400000800000000D4
:101650000000000200010000100000007C160008DD
:10166000000000204000000028010008BC1600080F
:1016700040000020B00600004401000800A24A0417
:101680000000000000000000010203040607080932
:101690000000000001020304010203040607080918
:1016A0000204060800000000000000000000000026
:0C16B0000000000000000000000000002E
:04000005080000ED02
:00000001FF
