:020000040800F2
:10000000F00600208D01000869090008BF070008FC
:100010000708000815060008731400080000000017
:10002000000000000000000000000000AD0B000810
:100030001906000800000000950A0008C10C00081D
:10004000A7010008A7010008A7010008A7010008F0
:10005000A7010008A70100081D060008A701000865
:10006000A7010008A701000845060008A70100082D
:10007000A7010008A7010008A7010008A7010008C0
:10008000A7010008A7010008A7010008A7010008B0
:10009000A7010008A7010008A7010008A7010008A0
:1000A000A7010008A7010008A7010008A701000890
:1000B000A7010008A7010008250D0008A7010008F6
:1000C000A7010008A7010008A7010008A701000870
:1000D000A7010008050F00081512000859120008B2
:1000E000A7010008A7010008A701000800F002F816
:1000F00000F03CF80AA090E8000C82448344AAF186
:100100000107DA4501D100F031F8AFF2090EBAE883
:100110000F0013F0010F18BFFB1A43F0010318473B
:10012000D8140000F8140000103A24BF78C878C131
:10013000FAD8520724BF30C830C144BF04680C60ED
:10014000704700000023002400250026103A28BF35
:1001500078C1FBD8520728BF30C148BF0B60704739
:10016000002070471FB51FBD10B510BD00F0A4F9E9
:100170001146FFF7F7FF01F0E1F900F0C2F903B40F
:10018000FFF7F2FF03BC01F07DF90000094880474A
:1001900009480047FEE7FEE7FEE7FEE7FEE7FEE769
:1001A000FEE7FEE7FEE7FEE704480549054A064B81
:1001B00070470000C50C0008ED000008F0000020AA
:1001C000F0060020F0020020F0020020704700003E
:1001D0000FB4044910B503AA029800F053F910BCFB
:1001E0005DF814FB300000202DE9F05F89460446DD
:1001F0004FF0000ADFF874B1FB44C0F820A020469D
:10020000E1688847002874D0252806D0D4E9012168
:100210009047206A401C2062F1E700265F46204696
:10022000E16888472028054607DB312D05D278197B
:1002300010F8200C08B10643F1E7B00701D526F00D
:100240000406C4F81CA00027C4F818A02A2D09D061
:10025000284601F010F938B304EB8708303DC8F8A0
:10026000185019E059F8041B204604EB87029161ED
:10027000E1688847012F054618D1E069002820DA97
:1002800026F020061DE0D8F8180000EB800005EBF2
:1002900040003038C8F818002046E1688847054615
:1002A00001F0E9F80028EED1012F0AD02E2D08D157
:1002B0002046E16888477F1C0546022F46F020064D
:1002C000C4DBA069002803DA404246F00106A061C1
:1002D000F00701D026F010066C2D0BD0682D09D048
:1002E0004C2D39D06A2D35D0742D35D07A2D33D0A0
:1002F00016E038E0E1682F4620468847B8420546B8
:1003000009D16C2F26D04FF48060E1680643204667
:100310008847054604E06C2F1AD04FF480700643DE
:100320000DB3A5F14100192802D8203546F4006626
:100330004A462946204626604E46FFF711FF80B107
:1003400001280BD0F61D26F0070000F1080956E73A
:100350004020E4E78020D8E70020D6E706F1040932
:100360004DE7284652E7206ABDE8F09FE8130000F9
:1003700040EA0103024630B59B0710D14FF001342B
:1003800000E008C208C91D1B9D4315EAC41FF8D030
:1003900013F0FF0102F8011B0DD01B0AF8E711F85A
:1003A000013B002B02F8013B05D011F8013B002B6B
:1003B00002F8013BF3D130BD4FF000020429C0F038
:1003C000128010F0030C00F01B80CCF1040CBCF187
:1003D000020F18BF00F8012BA8BF20F8022BA1EBD9
:1003E0000C0100F00DB85FEAC17C24BF00F8012BBE
:1003F00000F8012B48BF00F8012B70474FF00002B6
:1004000000B5134694469646203922BFA0E80C500A
:10041000A0E80C50B1F12001BFF4F7AF090728BFE5
:10042000A0E80C5048BF0CC05DF804EB890028BF61
:1004300040F8042B08BF704748BF20F8022B11F08A
:10044000804F18BF00F8012B704770477047704706
:100450007047000001694A1C02610878704700B5C6
:100460008FB0CDE901310021059105497944CDE9ED
:10047000031011466846FFF7B7FE0FB000BD00003D
:10048000E5FFFFFF074B70B50D467B44FFF7E7FF25
:100490000446284600F008F810B14FF0FF3070BD58
:1004A000204670BD8B100000007B00F0800070477C
:1004B00000487047900000207546FFF7F9FFAE46F0
:1004C00005006946534620F00700854618B020B560
:1004D000FFF76AFEBDE820404FF000064FF000072E
:1004E0004FF000084FF0000B21F00701AC46ACE8DC
:1004F000C009ACE8C009ACE8C009ACE8C0098D4649
:10050000704710B50446AFF300802046BDE81040A8
:10051000FFF735BE2DE9FC5F4FF0320AD34632209B
:10052000019000264FF00008364800784C2813D17F
:100530003448C078303833498978303901EB81014B
:1005400000EB410A2F48807930382E4949793039FB
:1005500001EB810100EB410B2B48007852280AD1B6
:100560002948C078303828498978303901EB810131
:1005700000EB410001905A20434202460A210090BC
:10058000504600F035F981465A20434202460A217E
:100590000090584600F02CF90746822043425A2228
:1005A0000A210090019800F023F905463E46B8461E
:1005B00009EB4904002F07DD002C01DDA0440BE00E
:1005C000002C09DA361B07E0002C02DDA8EB04083A
:1005D00002E0002C00DA26443DB970B200F070F958
:1005E0004FFA88F000F096F906E0684240B200F059
:1005F00067F968B200F08EF9C82000F067FFBDE827
:10060000FC9F0000400000204A00002010B5FFF7CA
:1006100081FF10BD00BFFEE77047000010B501204C
:1006200000F02AF840B105480068C0430449C1F809
:10063000B401012000F01AF810BD0000B4012242FC
:100640000000224210B5102000F016F840B1054815
:100650000068C0430449C1F8B401102000F006F856
:1006600010BD0000B401224200002242014908608E
:100670007047000014040140014600200022074B8F
:100680001B6803EA0102054B14331B680B4013B1CE
:100690000AB1012000E00020704700000004014082
:1006A0002DE9F04102460025002600200023002409
:1006B000002791F803C00CF00F0591F803C00CF06F
:1006C000100CBCF1000F03D091F802C04CEA0505F4
:1006D00091F800C0BCF1000F31D0146800202BE06D
:1006E0004FF0010C0CFA00F3B1F800C00CEA03065D
:1006F0009E4220D183004FF00F0C0CFA03F7BC434D
:1007000005FA03FC4CEA040491F803C0BCF1280F7D
:1007100006D14FF0010C0CFA00FCC2F814C00AE03C
:1007200091F803C0BCF1480F05D14FF0010C0CFA51
:1007300000FCC2F810C0401C0828D1D31460B1F8E6
:1007400000C0BCF1FF0F34DD546800202EE000F142
:10075000080C4FF0010808FA0CF3B1F800C00CEADD
:1007600003069E4221D183004FF00F0C0CFA03F7D1
:10077000BC4305FA03FC4CEA040491F803C0BCF145
:10078000280F05D100F1080C08FA0CF8C2F8148003
:1007900091F803C0BCF1480F07D100F1080C4FF0ED
:1007A000010808FA0CF8C2F81080401C0828CED3C3
:1007B0005460BDE8F081416170470161704700BF3E
:1007C000FEE7000008B50121102000F075F94FF494
:1007D0000050ADF8000010208DF8030003208DF8C4
:1007E000020069460148FFF75BFF08BD00100140A9
:1007F00070B50446049D601AEE1A7043561A90FBB9
:10080000F6F0184470BD00BFFEE7000010B50446C6
:10081000062C2ED110211D48FFF7CFFF4FF4007199
:100820001A48FFF7CAFF4FF4FA71080700F00EFBF1
:100830004FF480711548FFF7C0FF00214FF0804052
:1008400000F006FB80211148FFF7B5FF00214FF0B3
:10085000804000F0FFFA20210C48FFF7ACFF4FF476
:10086000FA71080700F0F8FA40210848FFF7A5FFE1
:100870000AE0072C08D110210448FFF79CFF4FF431
:1008800000710248FFF797FF10BD0000000C014007
:1008900008B50121042000F00FF910208DF80300A5
:1008A000F020ADF8000003208DF8020069460348EF
:1008B000FFF7F6FE00F09CF808BD000000080140BC
:1008C00010B50446002C0BDD10211148FFF775FF11
:1008D00020210F48FFF76FFFA0B200F0D3F815E01A
:1008E000002C0CDA20210A48FFF767FF1021084886
:1008F000FFF761FF614288B200F0C4F806E03021E2
:100900000348FFF75AFF002000F0BCF810BD0000BC
:100910000008014010B50446002C0BDD40211148B1
:10092000FFF74BFF80210F48FFF745FFA0B200F013
:10093000A9F815E0002C0CDA80210A48FFF73DFFEA
:1009400040210848FFF737FF614288B200F09AF86B
:1009500006E0C0210348FFF730FF002000F092F8C6
:1009600010BD0000000801407047000070B5002174
:1009700000230F22C47804B3154C246804F4E06407
:10098000C4F5E064210AC1F10403CA40447804FAC2
:1009900003F184781440214309010E4C0678A155D7
:1009A000047804F01F050124AC4005786D11AD00FA
:1009B00005F1E025C5F8004109E0047804F01F05C1
:1009C0000124AC40044D0678761145F8264070BDF0
:1009D0000CED00E000E400E080E100E002490143AA
:1009E000024A1160704700000000FA050CED00E0BB
:1009F00000B589B00121084600F04EF8012104201D
:100A000000F05AF818208DF823000420ADF82000DB
:100A100003208DF8220008A91948FFF741FE4FF086
:100A2000804000F0B3F90020ADF81A00ADF81600D0
:100A30006320ADF818002320ADF8140000208DF8D5
:100A40001C0005A94FF0804000F00AFA01A800F050
:100A5000F3F96020ADF804000020ADF80C0001208F
:100A6000ADF806000020ADF80A0001A94FF0804063
:100A700000F092F90121880700F06BF909B000BD80
:100A80000008014010B5044621464FF0804000F0B8
:100A9000E1F910BD7047000029B1064AD26902434E
:100AA000044BDA6104E0034AD2698243014BDA6104
:100AB000704700000010024029B1064A92690243C3
:100AC000044B9A6104E0034A92698243014B9A61A4
:100AD000704700000010024030B5002100220024C1
:100AE00000232D4D6D6805F00C0121B1042905D0BE
:100AF000082923D105E0294D056022E0274D056036
:100B00001FE0254D6D6805F47012234D6D6805F4E6
:100B10008034022505EB92421CB9214D55430560F6
:100B20000BE01D4D6D6805F400351DB11C4D55439E
:100B3000056002E0194D5543056002E0174D056060
:100B400000BF00BF144D6D6805F0F0010909154D97
:100B50006B5C0568DD4045600F4D6D6805F4E06134
:100B6000090A104D6B5C4568DD4085600A4D6D6873
:100B700005F46051C90A0B4D6B5C4568DD40C560EA
:100B8000054D6D6805F44041890B074D6B5CC568E8
:100B9000B5FBF3F5056130BD0010024000127A008C
:100BA00000093D001400002024000020704710B50B
:100BB00000F002F810BD00000CB50020019000907C
:100BC0003348006840F480303149086000BF304845
:100BD000006800F4003000900198401C01900098DB
:100BE00018B90198B0F5A06FF1D12948006800F458
:100BF000003010B10120009001E00020009000982A
:100C0000012843D12348006840F0100021490860C2
:100C10000846006820F0030008600846006840F0BD
:100C2000020008601A484068194948600846406850
:100C300048600846406840F4806048600846406864
:100C400020F47C1048600846406840F4E810486092
:100C50000846006840F08070086000BF0C480068DB
:100C600000F000700028F9D00948406820F0030027
:100C7000074948600846406840F00200486000BFED
:100C80000348406800F00C000828F9D10CBD0000B2
:100C90000010024000200240042808D14FF0E0215B
:100CA000096941F004014FF0E022116107E04FF0C3
:100CB000E021096921F004014FF0E0221161704741
:100CC0007047000010B51348006840F0010011495A
:100CD000086008464068104908400E4948600846C8
:100CE00000680E4908400B4908600846006820F477
:100CF000802008600846406820F4FE0048604FF4F9
:100D00001F008860FFF753FF4FF000600449086040
:100D100010BD0000001002400000FFF8FFFFF6FECB
:100D200008ED00E010B50121064800F01EF840B1C2
:100D30000121044800F00AF803480088401C0249D9
:100D4000088010BD000800403E000020CA43028217
:100D5000704721B1028842F00102028004E002885B
:100D60004FF6FE731A400280704730B502460020ED
:100D700000230024158A05EA0103958905EA010488
:100D800013B10CB1012000E0002030BD01894FF605
:100D9000F87211400181704770B5002400220023D1
:100DA000058C4FF6FF6635400584028C8388848B62
:100DB0004FF68F752C404FF6FC752C400D882C4358
:100DC0004FF6FF552A400D894FF6FF7606EA0525B6
:100DD0002A434D8806EA05252A43154DA84202D02C
:100DE000144DA8421DD14FF2FF752A404D894FF690
:100DF000FF7606EA05252A434FF6FF352A408D88FF
:100E000006EA05252A434EF6FF752B404DF6FF7581
:100E10002B408D8906EA05152B43CD8906EA051579
:100E20002B4383808483CD888587028470BD000036
:100E3000002C01400034014000210180418081806C
:100E4000C180018141818181C18170478186704764
:100E50000187704781877047A0F8401070470000F5
:100E6000002202881D4B98420ED01D4B98420BD099
:100E7000B0F1804F08D01B4B984205D01A4B9842D6
:100E800002D01A4B984204D14FF68F731A404B8808
:100E90001A43174B984207D0164B984204D04FF68E
:100EA000FF431A40CB881A4302808B8883850B88C6
:100EB00003850A4B98420BD0094B984208D00E4B41
:100EC000984205D00D4B984202D00D4B984201D16B
:100ED0000B7A03860123838270470000002C0140B7
:100EE000003401400004004000080040000C0040B5
:100EF0000010004000140040004001400044014048
:100F00000048014010B540F22551874800F0DFF954
:100F100000287DD0844800F095FAC4B2612C03D13A
:100F200001208249087022E0622C03D102207F490F
:100F300008701CE0632C03D103207C49087016E084
:100F4000642C03D104207949087010E0652C03D18A
:100F50000520764908700AE0662C03D10620734903
:100F6000087004E0672C02D10720704908707048AF
:100F7000007848B96D480078042805D100206B49F5
:100F8000087001206A4908706848007802287DD0FE
:100F90004C2C0ED1612C0CD0622C0AD0632C08D0C2
:100FA000642C06D0652C04D0662C02D00120614947
:100FB000087060480078012830D1612C2ED0622C56
:100FC0002CD0632C2AD0642C28D0652C26D0662CFB
:100FD00024D0594859490978445458480078401C4D
:100FE000564908702A2C19D15548007858B95548E7
:100FF00000210160416001814F4801604160018131
:1010000001204F4908704C494E48FFF7B1F900E004
:101010004AE000204749087048490870522C0ED118
:10102000612C0CD0622C0AD0632C08D0642C06D022
:10103000652C04D0662C02D0012043490870424838
:10104000007801286ED1612C6CD0622C6AD0632CA0
:1010500068D0642C66D0652C64D0662C62D03B4886
:101060003B49097844543A480078401C3849087094
:101070002A2C57D13748007868B9374800210160D9
:101080004160018131480160416000E00DE0018173
:101090000120304908702D492F48FFF769F90020D9
:1010A000294908702A4908703CE0412C16D1612C6E
:1010B00014D0622C12D0632C10D0642C0ED0652C6E
:1010C0000CD0662C0AD00120244908701421244831
:1010D000FFF772F914212348FFF76EF91F480078D3
:1010E00001281FD1612C1DD0622C1BD0632C19D07C
:1010F000642C17D0652C15D0662C13D019481A49CA
:101100000978445418480078401C174908702A2C64
:1011100008D114491248FFF72BF900200F49087035
:101120001149087010BD0000003801402D0000205A
:10113000340000203A000020680000203700002022
:1011400035000020400000203B00002072000020FD
:1011500038000020360000204A0000203C0000201B
:10116000540000207C0000203900002010B586B01B
:101170000446012144F20400FFF79EFC01210846C9
:10118000FFF79AFC4FF40070ADF8140003208DF8BF
:10119000160018208DF8170005A91C48FFF780FAE3
:1011A0004FF48060ADF8140004208DF8170005A9F5
:1011B0001648FFF775FA25208DF8000003208DF8FA
:1011C00001008DF8020001208DF803006846FFF74A
:1011D000CDFB01940020ADF80800ADF80A00ADF891
:1011E0000C00ADF810000C20ADF80E0001A9084865
:1011F00000F0BCF8012240F22551054800F091F8BA
:101200000121034800F04AF806B010BD0008014073
:101210000038014010B540F225510D4800F057F854
:1012200088B10B4800F00EF9C4B2612C02D0622CD8
:1012300008D103E001200749087003E002200549B6
:10124000087000BF00BF2146014800F000F910BD42
:10125000004400402C00002010B540F225510D48FC
:1012600000F035F888B10B4800F0ECF8C4B2612CFE
:1012700002D0622C08D103E001200749087003E086
:1012800002200549087000BF00BF2146014800F058
:10129000DEF810BD004800402C00002021B18289FA
:1012A00042F40052828104E082894DF6FF731A40B5
:1012B0008281704702460020B1F5007F00D100BF57
:1012C00013880B400BB1012000E00020704770B57F
:1012D0000246002400230025002040F66A16B14291
:1012E00000D100BFC1F3421501F01F03012606FA29
:1012F00003F3012D02D19689334006E0022D02D17D
:10130000168A334001E0968A33400C12012606FA11
:1013100004F41688344013B10CB1012000E0002021
:1013200070BDF0B50346002400260025002040F6DD
:101330006A17B94200D100BF1846C1F3421401F048
:101340001F06012707FA06F5012C01D10C3004E035
:10135000022C01D1103000E014301AB107682F437D
:10136000076002E00768AF430760F0BD2DE9F04772
:1013700086B005460E460024A24600BFA1460027BF
:10138000B08900B100BF2F462C8A4CF6FF70044094
:10139000F08804432C82AC894EF6F3100440B088E8
:1013A00031890843718908430443AC81AC8A4FF604
:1013B000FF400440B0890443AC8201A8FFF78CFBD6
:1013C0001F48874202D1DDF810A001E0DDF80CA033
:1013D000A88900F4004040B10AEBCA0000EB0A10F3
:1013E00031684900B0FBF1F807E00AEBCA0000EBF6
:1013F0000A1031688900B0FBF1F86420B8FBF0F006
:1014000004012009642101FB1089A88900F400402F
:1014100040B1322000EBC900B0FBF1F000F0070052
:10142000044308E0322000EB09106421B0FBF1F026
:1014300000F00F0004432C8106B0BDE8F0870000E7
:101440000038014001468888C0F30800704770B535
:1014500004460D46C5F30800A08000BF8021204649
:10146000FFF728FF0028F9D070BDC1F30802828081
:10147000704700BFFEE730380A2801D201207047CC
:101480000020704700BF704710B56FF00400FFF7F1
:1014900003FC0A4800680A49B0FBF1F009490870EA
:1014A0000846007800EB4001C1EBC0104FF6FF7119
:1014B00001EAC0000449088010BD000000000020BF
:1014C00000127A00280000202A0000200146114A5C
:1014D00012884A434FF0E0235A6100229A611A466B
:1014E000126942F001021A6100BF4FF0E022106958
:1014F00000F001021AB100F48032002AF5D04FF05A
:10150000E022126922F001024FF0E0231A6100226A
:101510009A6170472A00002070B504460D46E1B27A
:101520000548FFF7A2FF00BF80210348FFF7C2FE76
:101530000028F9D0204670BD00380140FFF7A4FF15
:101540004FF4A060FFF74AFAFFF73CF94FF416504A
:10155000FFF70CFE0AA0FEF73BFEFFF799F90FA07C
:10156000FEF736FE0720FFF751F913A0FEF730FE15
:101570004FF47A70FFF7AAFF01E000F02FF8FCE7C4
:10158000E4B8B2E58FA3E5889DE5A78BE58C96E5E9
:10159000AE8CE68890EFBC810D0A0000E794B5E6BA
:1015A0009CBAE5889DE5A78BE58C96E5AE8CE68830
:1015B00090EFBC810D0A0000E794B5E69CBAE9A95A
:1015C000B1E58AA8E5889DE5A78BE58C96E5AE8C0C
:1015D000E68890EFBC810D0A0000000010B5FFF70F
:1015E00015F810BD04000008000000000000000213
:1015F0000001000010000000181600080000002084
:101600004000000028010008581600084000002093
:10161000B00600004401000800A24A0400000000D7
:101620000000000001020304060708090000000092
:101630000102030401020304060708090204060864
:10164000000000000000000000000000000000009A
:08165000000000000000000092
:04000005080000ED02
:00000001FF
