:020000040800F2
:1000000078070020890100081D0C00085D09000820
:10001000A30A0008A1070008AB17000800000000B1
:10002000000000000000000000000000710E000849
:10003000A507000800000000590D0008850F000802
:10004000A3010008A3010008A3010008A301000800
:10005000A3010008A3010008A9070008A3010008E4
:10006000A3010008A3010008D1070008A3010008AC
:10007000A3010008A3010008A3010008A3010008D0
:10008000A3010008A3010008A3010008A3010008C0
:10009000A3010008A3010008A3010008A3010008B0
:1000A000A3010008A3010008A3010008A3010008A0
:1000B000A3010008A3010008E90F0008A30100083C
:1000C000A3010008A3010008A3010008A301000880
:1000D000A3010008451200085515000899150008ED
:1000E000A3010008A3010008A301000800F002F822
:1000F00000F03AF80AA090E8000C82448344AAF188
:100100000107DA4501D100F02FF8AFF2090EBAE885
:100110000F0013F0010F18BFFB1A43F0010318473B
:10012000602F0000802F0000103A24BF78C878C1EB
:10013000FAD8520724BF30C830C144BF04680C60ED
:10014000704700000023002400250026103A28BF35
:1001500078C1FBD8520728BF30C148BF0B60704739
:100160001FB51FBD10B510BD00F0B4F81146FFF764
:10017000F7FF01F0EFFB00F0D2F803B4FFF7F2FF56
:1001800003BC01F09DFB0000094880470948004777
:10019000FEE7FEE7FEE7FEE7FEE7FEE7FEE7FEE737
:1001A000FEE7FEE704480549054A064B7047000094
:1001B000890F0008ED000008780100207807002072
:1001C0007803002078030020704740EA01030246CC
:1001D00030B59B0710D14FF0013400E008C208C9C8
:1001E0001D1B9D4315EAC41FF8D013F0FF0102F850
:1001F000011B0DD01B0AF8E711F8013B002B02F898
:10020000013B05D011F8013B002B02F8013BF3D173
:1002100030BD4FF000020429C0F0128010F0030C32
:1002200000F01B80CCF1040CBCF1020F18BF00F8E9
:10023000012BA8BF20F8022BA1EB0C0100F00DB898
:100240005FEAC17C24BF00F8012B00F8012B48BFF6
:1002500000F8012B70474FF0000200B5134694469A
:100260009646203922BFA0E80C50A0E80C50B1F10E
:100270002001BFF4F7AF090728BFA0E80C5048BF22
:100280000CC05DF804EB890028BF40F8042B08BFC0
:10029000704748BF20F8022B11F0804F18BF00F8BC
:1002A000012B7047704770477047704710B500F0DA
:1002B00009F8006810BD10B5044600F003F80460AA
:1002C00010BD00000048704714010020004870472E
:1002D000140100207546FFF7F9FFAE460500694698
:1002E000534620F00700854618B020B5FFF75AFFA7
:1002F000BDE820404FF000064FF000074FF0000827
:100300004FF0000B21F00701AC46ACE8C009ACE8A7
:10031000C009ACE8C009ACE8C0098D46704710B50B
:100320000446AFF300802046BDE81040FFF725BF2C
:100330002DE9F04F95B000250020149082468346A9
:100340000120139012901021C74800F005FB4FF4D4
:100350000071C54800F000FB01240AE0C348005DBD
:100360002E2800D107E0C148015D601E0CAA11547F
:10037000641C142CF2DB00BF002415E0BB48005DB8
:100380002C2802D101201490641C149801280AD151
:10039000B648005D2E2801D1002507E0B348005D76
:1003A0000FA948556D1C641C142CE7DB00BF002509
:1003B0000A2438E00CA8005D30282CDB0CA8005D76
:1003C000392828DC284602F036FA07463A460B461A
:1003D0000020A74901F0DAFACDE902010CA9095D74
:1003E000A1F1300002F027FACDE90001DDE9022396
:1003F00002F074FACDE90601584602F01CFACDE984
:100400000401DDE9062301F0D3FFCDE9080102F084
:10041000E3F983466D1C9DF830002D2802D14FF082
:10042000FF301290641E002CC4DA00250A2438E044
:100430000FA8005D30282CDB0FA8005D392828DCD0
:10044000284602F0F8F907463A460B46002088494C
:1004500001F09CFACDE902010FA9095DA1F130007C
:1004600002F0E9F9CDE90001DDE9022302F036FAF4
:10047000CDE90601504602F0DEF9CDE90401DDE9DF
:10048000062301F095FFCDE9080102F0A5F98246A7
:100490006D1C9DF83C002D2802D14FF0FF301390C9
:1004A000641E002CC4DA13980AFB00FA12980BFBA6
:1004B00000FB70487049096840F821A06F486E49F8
:1004C000096840F821B06C480068401C6A4908601F
:1004D0000846006805287DD100200860002535E029
:1004E00000242EE0634850F824100246601C52F8A5
:1004F000200081420DDD104650F824000B9011467B
:10050000601C51F8200041F82400611C0B9842F84F
:1005100021005A4850F824100246601C52F820006E
:1005200081420DDD104650F824000A901146601CEF
:1005300051F8200041F82400611C0A9842F821007B
:10054000641CC5F10500A042CCDC6D1C042DC7DB8A
:100550004848D0F808A04948D0F808B07F20434266
:100560005A2251420090504600F090FA81463220C3
:1005700043425A2251420090584600F087FA0646FC
:10058000B9F1000F00DD7642A9EB060709EB06087A
:10059000381E01DB014600E04142142900DA002741
:1005A000B8F1000001DB014600E04142142901DA04
:1005B0004FF00008002F0EDB1021314800F0CCF97D
:1005C00020212F4800F0C6F9B9B24FF0804000F06A
:1005D000E1FD0EE03AE02021294800F0BDF91021AC
:1005E000274800F0B7F9784281B24FF0804000F020
:1005F000D1FDB8F1000F0EDB4021214800F0ACF92D
:1006000080211F4800F0A6F91FFA88F14FF08040C2
:1006100000F0C2FD0EE08021194800F09DF9402154
:10062000174800F097F9C8F1000081B24FF0804000
:1006300000F0B2FD14210F48FFF70DFE14210F4802
:10064000FFF709FE012001F05FF900BF00200C90C8
:100650000D900E900F9010901190012001F054F920
:1006600015B0BDE8F08F0000000C01407C000020B8
:1006700000002440EC000020640000200001002065
:10068000000801402DE9F84F4FF03209CA46CB4629
:100690000027B846344800784C2813D13248C07837
:1006A000303831498978303901EB810100EB41095B
:1006B0002D48807930382C494979303901EB810156
:1006C00000EB410A29480078522809D12748C07810
:1006D000303826498978303901EB810100EB410B34
:1006E000192043425A220A210090484600F0CEF9D0
:1006F0000546642043425A220A210090504600F0E9
:10070000C5F906467F2043425A220A2100905846E6
:1007100000F0BCF90446002E00DD6D42771B06EBAD
:1007200005080F2F03DA17F10F0F00DD0027B8F1CE
:100730000F0F04DA18F10F0F01DD4FF000083CB97C
:1007400038B200F00BFA0FFA88F000F037FA06E042
:10075000604200B200F002FA20B200F02FFA282026
:1007600001F0D2F8BDE8F88F680000207200002088
:1007700010B50A480078012802D1FFF783FF0CE08A
:1007800006480078022802D1FFF7D2FD05E00348B1
:100790000078032801D100F0F9F810BD2D000020E9
:1007A00000BFFEE77047000010B5012000F02AF8F6
:1007B00040B105480068C0430449C1F8B4010120B4
:1007C00000F01AF810BD0000B401224200002242DD
:1007D00010B5102000F016F840B105480068C0437D
:1007E0000449C1F8B401102000F006F810BD000063
:1007F000B401224200002242014908607047000013
:1008000014040140014600200022074B1B6803EA44
:100810000102054B14331B680B4013B10AB10120D0
:1008200000E0002070470000000401402DE9F04185
:10083000024600250026002000230024002791F80E
:1008400003C00CF00F0591F803C00CF0100CBCF1C4
:10085000000F03D091F802C04CEA050591F800C0E2
:10086000BCF1000F31D0146800202BE04FF0010CD8
:100870000CFA00F3B1F800C00CEA03069E4220D146
:1008800083004FF00F0C0CFA03F7BC4305FA03FC8E
:100890004CEA040491F803C0BCF1280F06D14FF0D4
:1008A000010C0CFA00FCC2F814C00AE091F803C075
:1008B000BCF1480F05D14FF0010C0CFA00FCC2F856
:1008C00010C0401C0828D1D31460B1F800C0BCF19E
:1008D000FF0F34DD546800202EE000F1080C4FF0CB
:1008E000010808FA0CF3B1F800C00CEA03069E42B6
:1008F00021D183004FF00F0C0CFA03F7BC4305FA2B
:1009000003FC4CEA040491F803C0BCF1280F05D1A4
:1009100000F1080C08FA0CF8C2F8148091F803C032
:10092000BCF1480F07D100F1080C4FF0010808FA9C
:100930000CF8C2F81080401C0828CED35460BDE8E3
:10094000F0810246002093680B400BB1012000E0CB
:1009500000207047416170470161704700BFFEE7AA
:1009600008B50121082000F009FA04208DF80300E1
:1009700048F2C010ADF8000003208DF8020069466F
:100980000148FFF753FF08BD000C01402DE9F0417D
:1009900080213148FFF7D5FF064640212E48FFF75A
:1009A000D0FF04464FF400412B48FFF7CAFF05462D
:1009B0004FF480712848FFF7C4FF0746012E0FD17E
:1009C000012C0DD1012D0BD1012F09D1002000F0F8
:1009D000C5F8002000F0F2F801202049087039E045
:1009E0005EB954B94DB947B96FF0310000F0B6F8AF
:1009F0006FF0310000F0E2F82CE0012C09D145B98C
:100A00006FF01D0000F0AAF86FF03B0000F0D6F880
:100A100020E054B9012D08D16FF03B0000F09EF8A2
:100A20006FF01D0000F0CAF814E0012E08D16FF03D
:100A3000090000F093F86FF0450000F0BFF809E0FE
:100A4000012F07D16FF0450000F088F86FF0090022
:100A500000F0B4F8BDE8F081000C01402D0000204A
:100A600008B50121102000F089F94FF40050ADF8CD
:100A7000000010208DF8030003208DF80200694665
:100A80000148FFF7D3FE08BD0010014070B50446D1
:100A9000049D601AEE1A7043561A90FBF6F0184443
:100AA00070BD00BFFEE7000010B50446062C2ED135
:100AB00010211D48FFF750FF4FF400711A48FFF74F
:100AC0004BFF4FF4FA71080700F060FB4FF48071A0
:100AD0001548FFF741FF00214FF0804000F058FB20
:100AE00080211148FFF736FF00214FF0804000F0D1
:100AF00051FB20210C48FFF72DFF4FF4FA71080736
:100B000000F04AFB40210848FFF726FF0AE0072CC7
:100B100008D110210448FFF71DFF4FF4007102486F
:100B2000FFF718FF10BD0000000C014008B50121BF
:100B3000042000F023F910208DF80300F020ADF818
:100B4000000003208DF8020069460348FFF76EFE9F
:100B500000F0A8F808BD00000008014010B50446E8
:100B6000002C0DDD10211448FFF7F6FE202112485D
:100B7000FFF7F0FEA1B24FF0804000F00BFB19E050
:100B8000002C0EDA20210C48FFF7E6FE10210A485F
:100B9000FFF7E0FE604281B24FF0804000F0FAFAC9
:100BA00008E030210448FFF7D7FE00214FF08040D5
:100BB00000F0F0FA10BD00000008014010B5044636
:100BC000002C0DDD40211448FFF7C6FE802112489D
:100BD000FFF7C0FEA1B24FF0804000F0DDFA19E04F
:100BE000002C0EDA80210C48FFF7B6FE40210A489F
:100BF000FFF7B0FE604281B24FF0804000F0CCFAC7
:100C000008E0C0210448FFF7A7FE00214FF0804014
:100C100000F0C2FA10BD000000080140704700005B
:100C200070B5002100230F22C47804B3154C24684A
:100C300004F4E064C4F5E064210AC1F10403CA408D
:100C4000447804FA03F184781440214309010E4CDE
:100C50000678A155047804F01F050124AC400578FE
:100C60006D11AD0005F1E025C5F8004109E00478FB
:100C700004F01F050124AC40044D0678761145F8B8
:100C8000264070BD0CED00E000E400E080E100E0F3
:100C900002490143024A1160704700000000FA0552
:100CA0000CED00E000B589B00121084600F056F8CF
:100CB0000121042000F062F818208DF823000320A1
:100CC0008DF822000420ADF8200008A92148FFF784
:100CD000ADFD0820ADF8200008A91E48FFF7A6FDCD
:100CE0004FF0804000F0B4F90020ADF81A00ADF8E4
:100CF00016006320ADF818002320ADF81400002082
:100D00008DF81C0005A94FF0804000F049FA01A8B9
:100D100000F032FA6020ADF804000020ADF80C00BD
:100D20000120ADF806000020ADF80A0001A94FF03F
:100D3000804000F093F90020ADF80A0001A94FF0BF
:100D4000804000F0DBF90121880700F064F909B068
:100D500000BD0000000801407047000029B1064AAC
:100D6000D2690243044BDA6104E0034AD269824348
:100D7000014BDA61704700000010024029B1064AB9
:100D800092690243044B9A6104E0034A92698243E8
:100D9000014B9A61704700000010024030B50021FD
:100DA0000022002400232D4D6D6805F00C0121B1B7
:100DB000042905D0082923D105E0294D056022E04A
:100DC000274D05601FE0254D6D6805F47012234D19
:100DD0006D6805F48034022505EB92421CB9214D63
:100DE000554305600BE01D4D6D6805F400351DB1E0
:100DF0001C4D5543056002E0194D5543056002E066
:100E0000174D056000BF00BF144D6D6805F0F0017F
:100E10000909154D6B5C0568DD4045600F4D6D6837
:100E200005F4E061090A104D6B5C4568DD408560A2
:100E30000A4D6D6805F46051C90A0B4D6B5C45683D
:100E4000DD40C560054D6D6805F44041890B074DD7
:100E50006B5CC568B5FBF3F5056130BD0010024061
:100E600000127A0000093D00140000202400002038
:100E7000704710B500F002F810BD00000CB500205E
:100E8000019000903348006840F480303149086098
:100E900000BF3048006800F4003000900198401C0A
:100EA0000190009818B90198B0F5A06FF1D12948C8
:100EB000006800F4003010B10120009001E0002033
:100EC00000900098012843D12348006840F01000AA
:100ED000214908600846006820F0030008600846C1
:100EE000006840F0020008601A48406819494860EC
:100EF0000846406848600846406840F480604860A2
:100F00000846406820F47C1048600846406840F479
:100F1000E81048600846006840F08070086000BF34
:100F20000C48006800F000700028F9D009484068BB
:100F300020F00300074948600846406840F002007E
:100F4000486000BF0348406800F00C000828F9D151
:100F50000CBD00000010024000200240042808D10F
:100F60004FF0E021096941F004014FF0E0221161E6
:100F700007E04FF0E021096921F004014FF0E02281
:100F8000116170477047000010B51348006840F0C9
:100F900001001149086008464068104908400E49A0
:100FA0004860084600680E4908400B49086008463A
:100FB000006820F4802008600846406820F4FE00A5
:100FC00048604FF41F008860FFF753FF4FF0006048
:100FD0000449086010BD0000001002400000FFF846
:100FE000FFFFF6FE08ED00E010B50121064800F015
:100FF0001EF840B10121044800F00AF803480088B7
:10100000401C0249088010BD000800403E0000203E
:10101000CA430282704721B1028842F00102028075
:1010200004E002884FF6FE731A400280704730B524
:101030000246002000230024158A05EA0103958951
:1010400005EA010413B10CB1012000E0002030BD1D
:1010500001894FF6F87211400181704770B5002484
:1010600000220023058C4FF6FF6635400584028C74
:101070008388848B4FF68F752C404FF6FC752C407F
:101080000D882C434FF6FF552A400D894FF6FF7609
:1010900006EA05252A434D8806EA05252A43154D0B
:1010A000A84202D0144DA8421DD14FF2FF752A402C
:1010B0004D894FF6FF7606EA05252A434FF6FF35A0
:1010C0002A408D8806EA05252A434EF6FF752B40F7
:1010D0004DF6FF752B408D8906EA05152B43CD890A
:1010E00006EA05152B4383808483CD888587028497
:1010F00070BD0000002C01400034014070B500229A
:1011000000230024058C4EF6FF7635400584038CC1
:101110008488828B48F6FF752A404FF6FF452A40A7
:101120000D884FF6FF7606EA05252A434DF6FF7532
:101130002B400D8906EA05352B434D8806EA053517
:101140002B430B4DA84202D00A4DA84208D14BF6C2
:10115000FF752C408D894FF6FF7606EA85152C43E6
:1011600084808283CD88A0F84050038470BD000045
:10117000002C014000340140002101804180818029
:10118000C180018141818181C18170478186704721
:101190000187704781877047A0F8401070470000B2
:1011A000002202881D4B98420ED01D4B98420BD056
:1011B000B0F1804F08D01B4B984205D01A4B984293
:1011C00002D01A4B984204D14FF68F731A404B88C5
:1011D0001A43174B984207D0164B984204D04FF64B
:1011E000FF431A40CB881A4302808B8883850B8883
:1011F00003850A4B98420BD0094B984208D00E4BFE
:10120000984205D00D4B984202D00D4B984201D127
:101210000B7A03860123838270470000002C014073
:10122000003401400004004000080040000C004071
:101230000010004000140040004001400044014004
:101240000048014010B540F22551874800F0DFF911
:1012500000287DD0844800F095FAC4B2612C03D1F7
:1012600001208249087022E0622C03D102207F49CC
:1012700008701CE0632C03D103207C49087016E041
:10128000642C03D104207949087010E0652C03D147
:101290000520764908700AE0662C03D106207349C0
:1012A000087004E0672C02D107207049087070486C
:1012B000007848B96D480078042805D100206B49B2
:1012C000087001206A4908706848007802287DD0BB
:1012D0004C2C0ED1612C0CD0622C0AD0632C08D07F
:1012E000642C06D0652C04D0662C02D00120614904
:1012F000087060480078012830D1612C2ED0622C13
:101300002CD0632C2AD0642C28D0652C26D0662CB7
:1013100024D0594859490978445458480078401C09
:10132000564908702A2C19D15548007858B95548A3
:1013300000210160416001814F48016041600181ED
:1013400001204F4908704C494E48FEF73EFF00E02F
:101350004AE000204749087048490870522C0ED1D5
:10136000612C0CD0622C0AD0632C08D0642C06D0DF
:10137000652C04D0662C02D00120434908704248F5
:10138000007801286ED1612C6CD0622C6AD0632C5D
:1013900068D0642C66D0652C64D0662C62D03B4843
:1013A0003B49097844543A480078401C3849087051
:1013B0002A2C57D13748007868B937480021016096
:1013C0004160018131480160416000E00DE0018130
:1013D0000120304908702D492F48FEF7F6FE002005
:1013E000294908702A4908703CE0412C16D1612C2B
:1013F00014D0622C12D0632C10D0642C0ED0652C2B
:101400000CD0662C0AD001202449087014212448ED
:10141000FEF7FFFE14212348FEF7FBFE1F4800786D
:1014200001281FD1612C1DD0622C1BD0632C19D038
:10143000642C17D0652C15D0662C13D019481A4986
:101440000978445418480078401C174908702A2C21
:1014500008D114491248FEF7B8FE00200F49087061
:101460001149087010BD0000003801402D00002017
:10147000340000203A0000209000002037000020B7
:1014800035000020680000203B0000209A0000206A
:101490003800002036000020720000203C000020B0
:1014A0007C000020A40000203900002010B586B088
:1014B0000446012144F20400FFF760FC01210846C4
:1014C000FFF75CFC4FF40070ADF8140003208DF8BA
:1014D000160018208DF8170005A91C48FFF7A6F97B
:1014E0004FF48060ADF8140004208DF8170005A9B2
:1014F0001648FFF79BF925208DF8000003208DF892
:1015000001008DF8020001208DF803006846FFF706
:1015100087FB01940020ADF80800ADF80A00ADF893
:101520000C00ADF810000C20ADF80E0001A9084821
:1015300000F0BCF8012240F22551054800F091F876
:101540000121034800F04AF806B010BD0008014030
:101550000038014010B540F225510D4800F057F811
:1015600088B10B4800F00EF9C4B2612C02D0622C95
:1015700008D103E001200749087003E00220054973
:10158000087000BF00BF2146014800F000F910BDFF
:10159000004400402C00002010B540F225510D48B9
:1015A00000F035F888B10B4800F0ECF8C4B2612CBB
:1015B00002D0622C08D103E001200749087003E043
:1015C00002200549087000BF00BF2146014800F015
:1015D000DEF810BD004800402C00002021B18289B7
:1015E00042F40052828104E082894DF6FF731A4072
:1015F0008281704702460020B1F5007F00D100BF14
:1016000013880B400BB1012000E00020704770B53B
:101610000246002400230025002040F66A16B1424D
:1016200000D100BFC1F3421501F01F03012606FAE5
:1016300003F3012D02D19689334006E0022D02D139
:10164000168A334001E0968A33400C12012606FACE
:1016500004F41688344013B10CB1012000E00020DE
:1016600070BDF0B50346002400260025002040F69A
:101670006A17B94200D100BF1846C1F3421401F005
:101680001F06012707FA06F5012C01D10C3004E0F2
:10169000022C01D1103000E014301AB107682F433A
:1016A000076002E00768AF430760F0BD2DE9F0472F
:1016B00086B005460E460024A24600BFA14600277C
:1016C000B08900B100BF2F462C8A4CF6FF70044051
:1016D000F08804432C82AC894EF6F3100440B088A5
:1016E00031890843718908430443AC81AC8A4FF6C1
:1016F000FF400440B0890443AC8201A8FFF74EFBD1
:101700001F48874202D1DDF810A001E0DDF80CA0EF
:10171000A88900F4004040B10AEBCA0000EB0A10AF
:1017200031684900B0FBF1F807E00AEBCA0000EBB2
:101730000A1031688900B0FBF1F86420B8FBF0F0C2
:1017400004012009642101FB1089A88900F40040EC
:1017500040B1322000EBC900B0FBF1F000F007000F
:10176000044308E0322000EB09106421B0FBF1F0E3
:1017700000F00F0004432C8106B0BDE8F0870000A4
:101780000038014001468888C0F30800704770B5F2
:1017900004460D46C5F30800A08000BF8021204606
:1017A000FFF728FF0028F9D070BD00BFFEE7490011
:1017B00050EAC12018BF04204A0D18BF40F00100B4
:1017C00040F2FF72B2EB515F08BF40F00200012807
:1017D00008BF052070472DE9F0414F1E00EBC701FF
:1017E0000446D1E9000115461E4637F006020DD029
:1017F0002A46334601F072F87F1E04EBC703D3E993
:10180000002300F0D5FD37F00602F1D1022F25D0DC
:10181000042F13D0062F18BFBDE8F0812A463346A7
:1018200001F05CF8D4E90A2300F0C2FD2A463346F1
:1018300001F054F8D4E9082300F0BAFD2A463346F3
:1018400001F04CF8D4E9062300F0B2FD2A463346F5
:1018500001F044F8D4E9042300F0AAFD2A463346F7
:1018600001F03CF8D4E9022300F0A2FD2A463346F9
:1018700001F034F8D4E90023BDE8F04100F098BD50
:10188000002213461046014900F04EBE0000F03F12
:1018900000F08EBD002213461046114600F044BEF3
:1018A00040F2013200204FF0E04101F059BB00004E
:1018B000024A0020110701F053BB000001FDFFFFA9
:1018C00000BF704710B56FF00400FFF747FB0A48F0
:1018D00000680A49B0FBF1F0094908700846007831
:1018E00000EB4001C1EBC0104FF6FF7101EAC000F0
:1018F0000449088010BD00000000002000127A009A
:10190000280000202A0000200146114A12884A437C
:101910004FF0E0235A6100229A611A46126942F0A0
:1019200001021A6100BF4FF0E022106900F00102CD
:101930001AB100F48032002AF5D04FF0E02212698B
:1019400022F001024FF0E0231A6100229A617047F1
:101950002A000020FFF7B6FF4FF4A060FFF798F9C8
:10196000FFF77EF84FF41650FFF7A0FDFFF7DEF803
:101970000720FFF799F8FEF7F3FF4FF47A70FFF7AF
:10198000C3FF01E0FEF7F4FEFCE700002DE9F04D97
:101990001D460C4698B0174621F0004123F0004345
:1019A000002814BF4FF0010C4FF0000C0CEB440C5E
:1019B000FE4A0CEB02064FEA620C66452BD33E0052
:1019C00018BF012606EB45061644F94A964222D373
:1019D000F84A53EA070C02D0944205D148B918B02E
:1019E00000201146BDE8F08D002808BF4FF0000C24
:1019F00001D04FF0010C0CEB440212F5001F0AD885
:101A0000002F14BF4FF0010C4FF0000C0CEB4502FF
:101A100012F5001F07D918B03A462B462146BDE8FB
:101A2000F04DFFF735BF0022DFF88CA3002CB8BFC4
:101A3000534526DADFF884C36345A8BF022220DAC3
:101A4000DFF870C39C451CDCDFF874C30CEB235C2F
:101A5000BCF1140F08DDCCF1340627FA06FC0CFAB1
:101A600006F6BE420DD108E05FB9CCF1140623FAA8
:101A700006FC0CFA06F69E4203D10CF00102C2F1FC
:101A8000020251EA000C19D1002D17DA002C18BF00
:101A9000022A01D0012A07D00220FEF70CFC18B060
:101AA000BDE8F04DFFF7ECBE0220FEF704FCFFF7A7
:101AB000E7FE18B081F00041BDE8F08DB7F1000CF1
:101AC0006CD1534525D104F1804212F5801201BF3B
:101AD00000280020B74918B008BFBDE8F08DB54810
:101AE000884207DC002DA1BF6046294618B0BDE83A
:101AF000F08D07E0281E05DA80F0004118B060463E
:101B0000BDE8F08DAF497944D1E9000118B0BDE8D6
:101B1000F08DDFF8A0C2634525D1002D1FDA19B181
:101B2000514512D1D8B909E0002840F0EC82A24A10
:101B3000214618B062F31E01BDE8F08D0020214659
:101B400018B060F31E01BDE8F08D08DA18B0234626
:101B5000BDE8F04D02460020614600F0E5BC18B03B
:101B60002146BDE8F08D514518DAB5F1804F0DD012
:101B7000A5F1005CBCF1FF5C10D1B4F1000C0DDBF1
:101B800018B06146BDE8F04D00F0ECBB234618B03C
:101B90000246BDE8F04D194600F0A0BE060024F054
:101BA000004C3BD1D9B1514533D1002C06DD002D7D
:101BB000A1BF0020514618B0BDE8F08D002C01DD1A
:101BC000002D1BDB002C13DA002D11DB012A4FF056
:101BD000000014BF78497C4918B0BDE8F08D022A96
:101BE00018BF002C0AD0012A08D1002C06DA0AE01E
:101BF000002CB8BF002D11DA012A04D0002018B043
:101C00000146BDE8F08D18B000204FF00041BDE85E
:101C1000F08DA1F14050B0F17F601AD0012000EBAF
:101C2000E47050EA020421D0624C521E4FF0000BC7
:101C3000104304BF4FF0000B644C654883427CDDC9
:101C4000644A654893421FDD884217DB002D25DB7F
:101C500037E0002C00DA4AB1022A0CBF01204FF015
:101C6000FF3018B0BDE8F04D00F0E5BD0120FEF7F3
:101C700022FB18B0BDE8F04DFFF70CBE4D4A8A427A
:101C800002DC002D0ADC1CE0814202DA002D18DAA9
:101C900004E0484B994220DD002D12DD0220FEF7C2
:101CA0000AFBFFF7FDFD05460E4600225346584647
:101CB000214600F013FE18B066F31E012846BDE869
:101CC000F08D0220FEF7F7FAFFF7F2FD0A462146F3
:101CD00018B062F31E01BDE8F08D00223046614667
:101CE00001F022F880460E466FF0010201F038F94B
:101CF0004FF05532394B00F025FF4246334600F095
:101D0000EDFD0022364B00F01DFF82464246334671
:101D100004911046194600F0E1FD5246049B00F084
:101D2000DDFD8A4600904FF0C0422E4B40463146C2
:101D300000F0D4FD2C4A2B4B00E027E0CDE9060152
:101D40005146009800F0CAFD82460191274A284B6F
:101D50004046314600F0C2FD5246019B00F0E4FFD0
:101D600082460B4602460591DDE9060100F020FBA4
:101D7000DDE9062300268846304600F0D5FF5246AE
:101D8000059B00F0DFFE024600F07EB90020B1F5B1
:101D9000801F07DA35223046614601F0E1F8064639
:101DA0006FF0340000EB215024E00000FFFF1F0023
:101DB000FFFF0F000000F03F0000F07F00004043F5
:101DC00001FCFFFF6E1500000000F0FF0000F0BFF7
:101DD0000000E0410000F043FFFFEF3F5555D53FC5
:101DE0000000E03F4715F73FFE822B6544DF5DF8BA
:101DF0000BAE543EA0F2FF300190C1F3130040F04F
:101E00007F6141F040510291FE498842D8BF0020D5
:101E100004DDFD498142C8BF012001DD0D9008E0CD
:101E200000200D900198401C01900298A0F58010B0
:101E300002900299F54878440B910D9900EBC1008E
:101E4000D0E900230F9330460A920B9900F06CFF03
:101E5000CDE90601DDE90A2130460F9B00F0A8FA22
:101E600002460B460020EA4900F05EFB059102465F
:101E70000B460090DDE9060100F030FD1490E548C6
:101E80008A464FF0000878440299006812904FF09B
:101E9000005040EA61010D980F9B01EB804000F576
:101EA000002109910A9A129800F03EFF32460B9BDE
:101EB00000F048FE4246534600F010FD06460291EF
:101EC00040465146099B129A00F008FDDDE90623C1
:101ED00000F038FE3246029B00F026FF059B009A78
:101EE00000F0FCFC0091149A0490534610461946E9
:101EF00000F0F4FC06460246C7480B460291062154
:101F00007844FFF768FCCDE90510029B3246104685
:101F1000194600F0E3FCDDE9053200F0DFFC059135
:101F20000646534640461946149A00F041FA009B73
:101F3000049A00F0D3FC3246059B00F039FACDE953
:101F40000510424653461046194600F0C7FC0022D1
:101F5000B24B02910A9000F02BFADDE9053200F055
:101F600027FA0E464246AD4B404600F0DDFE029B8E
:101F70000A9A00F0D9FEDDE9053200F0E3FD4246A1
:101F800002910A9033461046514600F0A7FCCDE975
:101F900006015346149A02990A9800F09FFC8A465B
:101FA0000290334642460099049800F097FC53464D
:101FB000029A00F0FDF982460B4602460591DDE9E2
:101FC000060100F0F5F9DDE9062300208846064603
:101FD00000F0AAFE5246059B00F0B4FD824609912E
:101FE0004FF060428E4B3046414600F077FC049043
:101FF00006918C4A8A4B5046099900F06FFC824644
:102000000291894A894B3046414600F067FC5246AE
:10201000029B00F0CDF9864B7B440D9A03EBC20383
:10202000D3E9002300F0C4F90E900791019800F065
:1020300002FC0591DDE9061382460E9A049800F031
:10204000B7F97C4A7A440D9B02EBC303D3E9002322
:102050000093029200F0ACF95246059B00F0A8F9FB
:102060000026884652463046059B00F05DFE009BE8
:10207000029A00F059FE069B049A00F055FE079B59
:102080000E9A00F05FFD024600200B460290384693
:10209000294600F023FC824601912B46384619461A
:1020A000029A00F041FE3246434600F017FC5246C9
:1020B000019B00F07DF907468A4632464346294691
:1020C000029800F00BFC05460E463A46534600F0D7
:1020D0006FF9594A8846914221DBA8EB020353EA83
:1020E000000210D12A46334600F01EFECDE904015D
:1020F000524A534B3846514600F05AF9DDE9042361
:1021000000F0EAFC21D20220FEF7D5F8FFF7C8FB69
:102110000A46214618B062F31E01BDE8F08D494B16
:1021200028F000429A4210D3474A08EB020353EAD0
:1021300000027FF4C6AD2A46334600F0F5FD3A466C
:10214000534600F0C9FC7FF6BCAD0022019228F096
:1021500000403E493E4A01EB2051824223DA481CAE
:102160004FF4801121FA00F040443A4AC0F30A517A
:102170007A44394BA1F2FF31CB4020EA0303C0F38C
:10218000130040F48010C1F11401C840126801909E
:10219000B8F1000FBCBF404201902846314600F024
:1021A000C3FD05460E462A4633463846514600F0E2
:1021B000FFF84FF000084246284B4046059100F0DA
:1021C0008DFBCDE90601264A264B4046059900F0D5
:1021D00085FB009102902A4633464046059900F05F
:1021E000A3FD3A46534600F0ADFC1F4A1F4B00F0DA
:1021F00075FB009B029A00F0DBF807468846024612
:102200000B4635E08E9803007AB60B00B61100003D
:102210000000F03FEE1100001C110000000008401B
:1022200009C7EE3FFD033ADCF5015B14E02F3EBE2B
:10223000F40F0000B80F000000009040FE822B65F4
:102240004715973C00CC904000346F3F01FCFFFFE6
:102250000000E03F040F0000FFFF0F00432EE63FA9
:10226000396CA80C615C20BEEF39FAFE422EE63FC5
:10227000DDE9060100F09CF8DDE9062305460E467F
:1022800000F052FD3A46434600F05CFC0F462A46F9
:10229000334600901046194600F020FB8246024665
:1022A0002E4888460B4605217844FFF794FA52469B
:1022B000434600F013FB2A46334600F043FC8046B9
:1022C0008A463B4628463146009A00F007FB3B46CB
:1022D000009A00F06DF80691009000224FF08043C4
:1022E0004046514600F020FD0F460C9042465346B2
:1022F0002846314600F0F2FA3B460C9A00F014F9F9
:10230000069B009A00F010FD2A46334600F00CFDB3
:102310000022134B00F016FC054601980E4601EB17
:1023200000510815002810DC28463146019A00F0BB
:1023300017FEFFF73CFA042808BFFFF7B9FA284652
:102340003146019A00F00CFE05460B4618B02A46AD
:1023500058462146BDE8F04D00F0C0BAA40D00007B
:102360000000F03F2DE9F04106460F4600F0F6FB75
:10237000041E0D4618BF0120284320F00040C0F184
:102380007F6000F1E040C00F0ED0301C18BF01206C
:10239000384320F00040C0F17F6000F1E040C00F02
:1023A00004BF0120FDF787FF20462946BDE8F081E4
:1023B00010B591EA030F48BF83F0004300F1BC84DD
:1023C000841A71EB030C05D2121943EB0C03001BAA
:1023D00061EB0C01DFF824E14FEA1154A4EB135C2C
:1023E0001EEA430F18BF9EEA445F73D023EA0E0330
:1023F000DCF1200E21EA045143F4801332D322FA97
:102400000CFE10EB0E0023FA0CFE41EB0E01CCF19A
:10241000200E03FA0EFE10EB0E0051F10001B1F593
:10242000801FCCF1200E32D201EB045112FA0EF2D1
:10243000BDE8104058BF7047401C38BF5FEA4202F9
:1024400018BF7047002814BF20F0010041F10001BF
:102450004FEA410313F5001F38BF7047A1F1C04197
:1024600000F034BB012A43EB0302ACF1200CDCF199
:102470001F0E32BF4FF0000E23FA0CF310EB0300D7
:1024800041EB0451B4EB115FD0D0A1EB045101F545
:10249000801149085FEA300001EB04510ED350F17E
:1024A000000038BF12FA0EFE08D1BDE81040C9E79F
:1024B000401C38BF5FEA4202CAD1C3E7BDE8104002
:1024C0004FEA410313F5001F38BF7047A1F1C04127
:1024D00000F0FCBA9EEA445F08D011EA5E0FBDE846
:1024E000104004BF01F0004100207047BDE81040DB
:1024F00070B500F09DFA00BF64FBBE3E0000E0FF37
:1025000002494FF0000000F0F9BC00BF0000F87F66
:10251000491058BFC1F140415B1058BFC3F140435F
:102520008B42EFF3008070472DE9C04130B4DFF8F3
:10253000A0C23CEA111418BF3CEA131400F0EC806E
:1025400081EA03051CEA111444EAD57418BF1CEA99
:10255000131500F0C780A4EB05044FF0004545EAD1
:10256000C12145EAC32341EA505143EA525304F1E1
:102570007F74994204F500344FEAC0204FEAC2222A
:1025800008BF904200F09C804FEA13650FF240169E
:10259000765D4FEA134506FB05F7C7F1807706FB2A
:1025A00007F74FEAD737A7FB03687642C8F58038AC
:1025B000A7FB06CE38BFA8F1010807FB08E64FF0DD
:1025C000000EA6FB028CE6FB03CEDCF1000CCEF184
:1025D000004E38BFAEF1010EA6FB0C584FF00007BD
:1025E0004FF00005E6FB0E87A1FB08C6A0FB07CE57
:1025F00016EB0E0645F10005E1FB076515F1E04E0F
:102600007EBFA4F580345FEA46066D4116F180076F
:1026100045F100054FEA17274FEA066647EA0567C6
:10262000A6F1DE46B6F1805F4FEA15251FD9384680
:1026300024F0010C05EBC471BCF1FE6F01EB0C1131
:1026400002D8F0BCBDE8008124425CBF01F5801EC9
:102650009EEAC47F02D4F0BCBDE80081244238D495
:10266000F0BCA1F1C041BDE8004100F02FBA4FEA33
:10267000D22242EA43524FEAD323A7FB02864FEA13
:10268000D02040EA415007FB03661EEA0E0F4FEAD6
:10269000D12105FB026658BFA6EB0056B6EB0056EB
:1026A0004FEA520E4EEAC37E18EB0E0E56EB530E57
:1026B000BDD518EB02085E417F1C55F10005B6E759
:1026C0004FF480154FF000074FF000064FF0000860
:1026D000ADE7F0BC4FF0000001F1C04101F0004156
:1026E000BDE8008111EA0C1F0CEA131500D00CE0C4
:1026F00013EA0C1F00F025804FF00000F0BC81EAC7
:10270000030101F00041BDE80081F0BCBDE80041DB
:1027100081EA030100F0DAB9F0BCBDE8004170B510
:1027200000F086F9097EFC3E00F007B881EA03015B
:102730004FF0000001F00041704781EA030100F012
:10274000C5B9F0BCBDE800414FF000002149704719
:10275000FFFDFBF9F7F5F4F2F0EEEDEBE9E8E6E466
:10276000E3E1E0DEDDDBDAD8D7D5D4D3D1D0CFCDED
:10277000CCCBCAC8C7C6C5C4C2C1C0BFBEBDBCBB26
:10278000BAB9B8B7B6B5B4B3B2B1B0AFAEADACAB21
:10279000AAA9A8A8A7A6A5A4A3A3A2A1A09F9F9EFB
:1027A0009D9C9C9B9A9999989797969595949393AD
:1027B000929191908F8F8E8E8D8C8C8B8B8A898944
:1027C00088888787868585848483838282818180C7
:1027D0000000FF070000F87F4FEA41034FEA535320
:1027E000A3F58063D3F11E03C8BFD3F1210C0CDD28
:1027F0004FF0004242EAC12242EA505232FA03FC50
:102800008CEAE17CACEBE1707047102BC4BF002078
:10281000704703F5787CBCF1FF3F04D06FF00042B5
:1028200082EA2100704770B500F002F949922480D5
:1028300000207047F2E710F0004248BF4042B0FA73
:1028400080F310FA03F10AD0C3F11D0303F580638E
:102850004FEA415002EB035202EBD12170474FF097
:102860000000704751EA030C17D41CF5801F58BFB5
:10287000BCF5801F00F10680994218BF704708BF61
:102880009042704707D711F5801F58BF13F5801F7E
:1028900019D499427047894270471CF5801F08D5AA
:1028A000BCF5801FF7D58B4218BF704708BF824226
:1028B00070474FF4001C1CEB410F38BF1CEB430F5B
:1028C00001D28B42704770B500F0B2F892244900F3
:1028D0004FF000514FF08053FFF71ABEDFF848C1A8
:1028E00070B51CEA111E1EBF1CEA13159EEA0C0FE0
:1028F00095EA0C0F00F06F8081EA030423EA4C1381
:102900004EEAD47E21EA4C1141F4801143F4801345
:10291000AE44A1FB024CA0FB0365AEF17F7E3619ED
:1029200055EB0C05A1FB034C4CF10003A0FB021C72
:1029300016EB0C06654153F10003094218BF46F03F
:10294000010613F4007F0BD14FEA03314FEA053043
:10295000340341EA155140EA16506FF003020AE0D1
:102960004FEAC3214FEAC520F40241EA555140EA3B
:1029700056506FF0020202EB2E4201EB025585EA3F
:10298000CE710AD05FEA440C18BF24F0004450F125
:10299000000041F1000120EAD47040F2FE7C624563
:1029A00000D270BDA84214BF4FF080444FF04044A5
:1029B000002E08BF0024BEF1806FA8BFA1F1C04166
:1029C000BDE8704080F282804FF0000001F1C0410C
:1029D00001F0004170479EEA0C0F0CEA131518BF76
:1029E00095EA0C0F06D04FF0000081EA030E0EF0BE
:1029F000004170BD00F01CF88900013E00F007B8EE
:102A000000F009B84FEA430C5FEA5C5C08D081EA49
:102A1000030100F05BB84FEA410C5FEA5C5CF6D161
:102A20004FF00000014970470000FF070000F87FE9
:102A30000EF1020E2EF0030E5EF8046B364205D442
:102A4000012A43EB030515F5001F12D8012841EBBD
:102A5000010C1CF5001F0CD80ED14FEAD17C15F5E6
:102A6000001F0CEB4C0C0CF1020C08BF4CEBD37CA0
:102A700004E04FF0080C01E04FEAD37C0CEB4C056E
:102A800026FA05F606F00706B6F1040C06D20EEBA0
:102A9000860CBDE870404CF0010C6047DFE80CF09C
:102AA000090B02024FF000414FF00000A1F5002198
:102AB00070BD19461046012851EB010418BFD4F52A
:102AC000001484BF002001F0004170BD0808A0F58B
:102AD00000114FEA3101704753EA010C17D41CF57D
:102AE000801F58BFBCF5801F00F106808B4218BFC5
:102AF000704708BF8242704707D713F5801F58BF41
:102B000011F5801F19D48B4270479B4270471CF50A
:102B1000801F08D5BCF5801FF7D5994218BF7047B4
:102B200008BF904270474FF4001C1CEB430F38BFA6
:102B30001CEB410F01D2994270470FB40CBC03BC8F
:102B4000FFF7C1BE91EA030F10B581F000413FF5D8
:102B500037AC83F0004300F0EFB800002DE9F041FE
:102B600001F5801CBCF5001FC0F2C3804FEA115C68
:102B700021EA0C510CF1FD0C41F480115FEA5C0C70
:102B80000CF5C07C01D3400049413DA4890241EAD3
:102B9000905187028E0E0A0CA45D04FB04F602FB22
:102BA00006F6C6F14046A4FB0662F60D46EA42264A
:102BB00006FB06F4A4FB01235242C3F1404338BF95
:102BC0005B1EA6FB02420024E6FB0324D20B42EA72
:102BD0004446A6FB0623A1FB02E2A3FB07E4A418DC
:102BE0004FF0000252F10002E3FB01426442C2F1E5
:102BF000404E38BFAEF1010EA6FB04234FF0000299
:102C0000E6FB0E32A2FB03464FF00004B61954F166
:102C10000004E2FB0264A1FB06E6A4FB07E816EB56
:102C200008064FF0000858F10008E4FB01687642FE
:102C3000C8F1405838BFA8F10108A2FB06E4A3FB85
:102C400008E52D194FF0000454F10004E2FB08548C
:102C5000A1FB05E6A7FB04E818EB06084FF0000609
:102C600056F10006E1FB048618F1200556F1000636
:102C7000A809A8F11B08B10908F03F08B8F10A0F2C
:102C800040EA86601CD901EB0C51BDE8F08100BF21
:102C9000FCF5EEE8E2DDD8D3CFCBC7C3C0BDB9B6F3
:102CA000B4B1AEACA9A7A5A3A19F9D9B9A989695F8
:102CB0009392908F8D8C8B8988878685848382817F
:102CC000A0FB006800FB01F208EB4208B8EB872884
:102CD00007D5341858EB0104D5D5401C51F100013B
:102CE000D1E7341A78EB0104CDD4401E71F1000114
:102CF000C9E75FEA4C0C5FEA9C5C0DD105D34FF04D
:102D0000000001F00041BDE8F081BDE8F04170B580
:102D1000FFF78EFE6DDBFFBEBDE8F0414FF0000017
:102D2000004970470000F87F10B591EA030F48BFD3
:102D300083F000433FF544AB841A71EB030C07D2D8
:102D400012198CF0004C43EB0C03001B61EB0C01DF
:102D5000DFF8A4E14FEA1154A4EB135C1EEA430F21
:102D600018BF9EEA445F00F0B08023EA6E0352422F
:102D700021EA0451C3EB6E0338BF5B1EDCF1200E69
:102D800025D322FA0CFE10EB0E0043FA0CFE41EBA9
:102D90000E01CCF1200E03FA0EFE10EB0E0051F1E5
:102DA0000001CCF1200E29D412FA0EF201EB0451ED
:102DB000BDE8104058BF7047401C1CBFB2F1004F27
:102DC000704700280CBF491C20F00100704712EB2F
:102DD000020E43EB030218BF4FF0010E4EEA42020F
:102DE000ACF1200CDCF11E0E54D943FA0CFE10EBB2
:102DF0000E0051F1FF31CCF11E0ED5D50EF1010EB2
:102E000012FA0EFE404141EB010101EB445C5FEA26
:102E10005C5C10D910EBDE7001EB045138BFBEF1E1
:102E2000004FBDE8104018BF704700280CBF491C78
:102E300020F00100704730D24FEAD42C11F5001178
:102E400024F400641BD0B1FA81F20B3AA41AA41E38
:102E5000D2F12003914030FA03F31943904001EB83
:102E6000CC71002C01EB0451BDE81040A8BF7047A5
:102E700001F1C0414FF0000001F000417047B0FA8D
:102E800080F310FA03F100D110BDE41A173C480595
:102E9000C90AE4E701EB045110BD491001EB0451EC
:102EA000BDE810404FEA300002E04FF000017047EB
:102EB0004A0008BF0042F8D0B2F5001F28BF704793
:102EC00001F000414FF0000070479EEA445F07D0D8
:102ED00011EA5E0FBDE8104004BF002100207047DA
:102EE000BDE8104070B5FFF7A3FD00BF40DFF63E20
:102EF00083F00041104670470000E0FF0CF00F0324
:102F0000092B08BF082000F059800A2B0BD0082B92
:102F100018BF704708BF1CF0400F0AD04FF00000E8
:102F20004FF0000170471CF0400F18BF4FF00040F9
:102F300070471CF0100F08D020F0704300F07F4263
:102F400042EAD3014FEA4370704700F0604021F03D
:102F50007F4242EA000201F07F4040EA727070470F
:102F60004FF0FF0C4CF4E06C1CEA11531CBF9CEAC0
:102F7000030C9445C2BFDA4201EB02517047002BAB
:102F80000DD0BCF1000F0FD0002A01F00041A4BF0A
:102F900041F0E04141F07F614FF00000704701F0E7
:102FA00000414FF00000704750EA01334FF09B0C96
:102FB00018BF4CF0806C7FF4A3AA70471CF4801FEC
:102FC00011D01CF4E02F03D06FEACC3149007047D8
:102FD0004FF04050EFF3008222F0704242EA0002CC
:102FE00082F3008870474FF0000070470000000037
:102FF000000000000000F03F000000000000F83F6B
:1030000000000000000000000000004003B8E23FA4
:10301000000000000000000006D0CF43EBFD4C3E56
:10302000033333333333E33FFFAB6FDBB66DDB3F4B
:103030004D268F515555D53F01411DA96074D13F93
:1030400065DBC9934A86CD3FEF4E454A287ECA3F8D
:103050003E5555555555C53F93BDBE166CC166BF0F
:103060002CDE25AF6A56113FF16BD2C541BDBBBE08
:10307000D0A4BE726937663E000000000000000068
:10308000A0300008000000206800000028010008AF
:103090000831000868000020100700004401000803
:1030A00000A24A0400000000000000000102030426
:1030B00006070809000000000102030401020304DE
:1030C00006070809020406080000000000010000CD
:1030D00000000000000000000000000000000000F0
:1030E00000000000000000000000010000000000DF
:1030F00000000000000000000000000000000000D0
:083100000000000000000000C7
:04000005080000ED02
:00000001FF
